:020000040800F2
:1000000078540020B5AE010865040008A176000808
:10001000670400086B0400086F040008000000007B
:100020000000000000000000000000007304000851
:10003000750400080000000033760008770400080B
:10004000CFAE0108CFAE0108CFAE0108CFAE010898
:10005000CFAE0108CFAE0108CFAE01080BB1010849
:10006000CFAE0108CFAE0108CFAE0108CFAE010878
:10007000CFAE0108CFAE0108CFAE0108CFAE010868
:10008000CFAE0108CFAE0108CFAE0108CFAE010858
:10009000CFAE0108CFAE0108CFAE0108CFAE010848
:1000A000CFAE0108CFAE0108CFAE0108CFAE010838
:1000B000CFAE0108CFAE0108CFAE0108CFAE010828
:1000C000CFAE0108CFAE0108CFAE0108CFAE010818
:1000D000CFAE01087F0400088104000893040008E3
:1000E000CFAE0108CFAE0108CFAE0108000000007E
:1000F0000000000000000000000000000000000000
:100100000000000000000000CFAE0108CFAE0108E3
:10011000CFAE0108CFAE0108CFAE0108CFAE0108C7
:10012000CFAE0108CFAE0108CFAE0108CFAE0108B7
:10013000CFAE0108592A0008CFAE0108CFAE0108A2
:10014000CFAE0108CFAE0108CFAE0108CFAE010897
:1001500000F002F800F075F80AA090E8000C824464
:100160008344AAF10107DA4501D100F06AF8AFF241
:10017000090EBAE80F0013F0010F18BFFB1A43F085
:100180000103184734DE010054DE01000A444FF039
:10019000000C10F8013B13F0070408BF10F8014BE6
:1001A0001D1108BF10F8015B641E05D010F8016B2B
:1001B000641E01F8016BF9D113F0080F1EBF10F88F
:1001C000014BAD1C0C1B09D16D1E58BF01F801CBB2
:1001D000FAD505E014F8016B01F8016B6D1EF9D535
:1001E0009142D6D37047000000230024002500264A
:1001F000103A28BF78C1FBD8520728BF30C148BF8A
:100200000B60704766291CF08C8564291BF02080E8
:1002100078291BF05980002070471FB51CF07AFD2B
:100220001BF0A8FA0400002000211CF0D9FA401CA1
:100230006060002000211CF0E9FAE0601FBD10B5ED
:1002400010BD1BF0B9FE1146FFF7E7FF00F07EF886
:100250001BF0E5FE03B4FFF7F2FF03BC02F0FCFE67
:1002600010B5044616F041FC02F072FE02F04FFF9A
:1002700010F073FA12A005F0F2F810BD1CB51420AE
:1002800008210B020022CDE90010AFF22B0112A0D1
:1002900006F04BFD044614B1204606F0A4FD0020F4
:1002A0001CBD00BF0E48006800F4E0600D49084323
:1002B000001D0B490860BFF3408F00BF00BFFEE781
:1002C0005443502F495020696E697469616C697A92
:1002D0006564210A00000000696E69740000000076
:1002E0000CED00E00000FA0504460D461BA005F0E9
:1002F000B6F8214623A005F0B2F8294626A005F05D
:10030000AEF800BFFEE710B500F099F805F0C5F8AB
:1003100002F0A6FE06F0C1F807F023F923492448AD
:1003200005F034FA1AF00BFE06F062FA02F0EFFE66
:10033000FFF7A4FF0DF018FA1EA00CF0EAFE07F07C
:1003400015F903F0F3F806F06FFA10BD10B507F0D9
:1003500059F9FFF7D8FF002010BD00000A0D205703
:10036000726F6E6720706172616D65746572207660
:10037000616C7565206465746563746564206F6E77
:100380000D0A00002020202020202066696C6520B6
:100390002025730D0A000000202020202020206C42
:1003A000696E65202025640D0A0000000000012010
:1003B00078540020756172743200000010B500217D
:1003C0004FF000601AF0EDFC10BD70B586B001A8CA
:1003D00017F051FB4FF47A710298B0FBF1F421460B
:1003E000B1F1807F00D31DE021F07F40401E4FF02F
:1003F000E022506150170F22002807DA13071E0E63
:10040000144B00F00F052D1F5E5503E013071D0E62
:10041000114B1D5400BF00204FF0E02290610720D7
:10042000106100BF04201AF001FD06B070BD10B5C8
:1004300004F0A2FC02F026FE04F0ADFC10BD10B5E5
:10044000FFF7BCFFFFF7C1FF00F061F803A005F064
:100450007BF810BD18ED00E000E400E075617274F7
:1004600032000000704700BFFEE700BFFEE700BF9C
:10047000FEE77047704710B5FFF7D9FF10BD704712
:1004800010B504F079FC034800F03BFA04F083FC5B
:1004900010BD70476803002010B50121084617F011
:1004A000DEFB0121212017F0DAFB0121082018F0E2
:1004B00023FF0121480417F0F7FB10BD08B54020C9
:1004C000ADF8000004208DF8030069462E4818F0AE
:1004D000D9FB2020ADF8000018208DF80300032080
:1004E0008DF802006946284818F0CCFB08BD08B515
:1004F00026208DF8000001208DF801008DF8020003
:100500008DF8030068461AF0FCFB08BD704700B583
:1005100087B0FFF7C1FFFFF7D1FFFFF7E8FFFFF755
:10052000F5FF4FF4E13003900020ADF81000ADF876
:100530001200ADF81400ADF818000C20ADF816004C
:100540000020ADF80400ADF806004FF40070ADF8DF
:1005500008000020ADF80A0003A90C4819F0A7F81C
:1005600001A90A4819F090F9094B40F2431209A178
:100570000A4800F083F9012240F22551034819F09E
:1005800007FA07B000BD000000140140004400401D
:1005900000000020756172743200000068030020C2
:1005A000F8B50546EC6BE88A10F0100F39D1E88AEF
:1005B00010F4807F0BD080220021606804F031FCB1
:1005C00000206168C1F880006168C1F88400E88A91
:1005D00010F4006F1DD0A068006850B900262F23CA
:1005E000F34AF4A1FDA004F03AFF00BF002EFDD0B5
:1005F00000BF0020A1688860A168486010200090BA
:10060000A16801F1440201F10C005023FBA105F0A7
:1006100017FD0121206819F08EF9E88A40F01000DA
:10062000E8820020F8BD0246002070470146002005
:1006300070472DE9F05F80468B4616461F463546CB
:100640004FF00009D8F83C40B8F8160010F4807F4D
:1006500030D02CE006F0D6FF82466068D0F88000EB
:100660006168D1F88410884217D06068D0F8801093
:10067000405C05F8010B7F1E6068D0F88000401CCC
:100680006168C1F880006068D0F8800080280AD3D3
:1006900000206168C1F8800005E06FF00309504652
:1006A00006F0B4FF05E0504606F0B0FF00BF002F93
:1006B000D0D10DE009E003E02068808828706D1C2F
:1006C0002068008810F0200FF6D1A81BB842F2D3A2
:1006D000484604F085FBA81BBDE8F09F2DE9F041DA
:1006E00004460D46164654B900278E23C44AC5A1B8
:1006F000BAA004F0B4FE00BF002FFDD000BF00215F
:1007000020461AF003F8E56066600121204619F0E2
:10071000FDFFBDE8F0812DE9F05F804691461F4660
:100720004FF0000A4E46D8F83C40B8F8160010F4D6
:10073000806F0AD00025A923B84AB9A1A7A004F068
:100740008EFE00BF002DFDD064E0B8F8160010F456
:10075000006F31D0A16801F10C004FF0FF3105F0BE
:100760008FFD054615B96FF0040A24E02E606F6016
:100770000020A86006F046FF8346A0688068E86015
:10078000A068806810B1A06880688560A0688560F6
:10079000A068406858B9A0684560A3685B685A685B
:1007A000A3685B681968A3681868FFF797FF584645
:1007B00006F02CFF00BF2DE0B8F8160010F0400F37
:1007C0001AD016E030780A2808D100BF20680088C7
:1007D00010F0800FFAD00D202168888000BF2068BB
:1007E000008810F0800FFAD0307821688880761C5D
:1007F0007F1E002FE6D10DE00AE000BF20680088D0
:1008000010F0800FFAD0307821688880761C7F1E27
:10081000002FF2D1504604F0E3FAA6EB0900BDE840
:10082000F09F2DE9F04104460E4690465CB9002742
:100830004FF482737B4A7CA168A004F010FE00BFD5
:10084000002FFDD000BFE56B012E0AD0022E11D182
:10085000E08A40F02000E0820021286819F06BF85F
:1008600008E0E08A20F02000E0820121286819F0E9
:1008700062F800BF00BF0020BDE8F0812DE9F04123
:1008800004460F4615461E466CB94FF0000840F26C
:100890001F13694A69A151A004F0E1FD00BFB8F13E
:1008A000000FFCD000BF15F4007F02D115F4806F5B
:1008B0000DD04FF000084FF492735F4A58A147A043
:1008C00004F0CDFD00BFB8F1000FFCD000BF002048
:1008D0002075E06120625E4860625E48A0625E480A
:1008E000E0625E4820635E4860635E48A063E66342
:1008F000A8B240F003023946204602F0E5FBBDE80D
:10090000F08170B50546EC6B40F22551206819F076
:1009100074FC00284BD0E88A10F4807F0BD10026AD
:100920004FF49F73504A51A12CA004F098FD00BFD2
:10093000002EFDD000BF34E006F064FE06462068BD
:1009400080886168D1F8842088546068D0F8840079
:10095000401C6168C1F884006068D0F88400802879
:1009600003D300206168C1F884006068D0F8840077
:100970006168D1F8801088420FD16068D0F880009B
:10098000401C6168C1F880006068D0F88000802851
:1009900003D300206168C1F88000304606F036FEBF
:1009A00000BF2068008810F0200FC5D172E097E0EA
:1009B0003ACD0108756172742D3E646D615F747883
:1009C0002D3E646D615F6368616E6E656C20213DD4
:1009D0002052545F4E554C4C0000000028257329CE
:1009E00020617373657274206661696C656420614F
:1009F000742025733A2564200A000000646E00000C
:100A000049CD0108646D615F6368616E6E656C203D
:100A1000213D2052545F4E554C4C00005ECD0108E4
:100A2000300000006ECD010864657620213D205223
:100A3000545F4E554C4C000080CD010864657669CA
:100A4000636520213D2052545F4E554C4C00000000
:100A5000A1050008270600082D0600083306000837
:100A6000170700082308000896CD01086465766919
:100A700063652D3E666C616720262052545F4445B5
:100A8000564943455F464C41475F494E545F525873
:100A90000000000040F22551206819F038FCE86998
:100AA000F0B16068D0F880006168D1F884108842A5
:100AB00009D96068D0F88000C0F180006168D1F881
:100AC0008410084406E06068D0F884006168D1F8BA
:100AD0008010401A064631462846EA69904700BF12
:100AE00040F22661206819F088FB20B140F22661AF
:100AF000206819F00CFC70BD2DE9F0410546EC6B47
:100B0000E88A10F4006F0CD100274FF4BE73234A1B
:100B100023A1AFF2381004F0A2FC00BF002FFDD0DB
:100B200000BFA068466866B900274FF4C0731B4A2F
:100B300025A1AFF2581004F092FC00BF002FFDD0A9
:100B400000BF286A18B1316828462A6A904706F023
:100B500059FD8046B068A1684860A068406810B937
:100B60000020A1688860404606F050FD304605F040
:100B7000FFFBA068406850B1A3685B685A68A3682F
:100B80005B681968A3681868FFF7A8FD04E0A1680E
:100B90000868002119F0BAFDBDE8F081A7CD010871
:100BA0006465766963652D3E666C61672026205218
:100BB000545F4445564943455F464C41475F444D69
:100BC000415F545800000000646174615F6E6F649F
:100BD0006520213D2052545F4E554C4C00000000D2
:100BE00010B50121880317F084F800214FF48040EC
:100BF00017F07FF810BD2DE9F04186B004460025BE
:100C00000027FC4EA8462068012801D0206800B9C2
:100C100003E09521F8A0FFF767FB606818B16068F2
:100C2000B0F5000F00D103E09621F3A0FFF75CFBC5
:100C3000A06818B1A068B0F5800F00D103E097213B
:100C4000EDA0FFF751FBE068D8B1E068B0F5003FD8
:100C500017D0E068B0F5802F13D0E068B0F5C02F52
:100C60000FD0E068B0F5002F0BD0E068B0F5202F72
:100C700007D0E068B0F5402F03D0E068B0F5602FF2
:100C800000D103E09821DCA0FFF72EFB206918B10A
:100C90002069B0F5803F00D103E09921D6A0FFF78D
:100CA00023FB606918B16069B0F5804F00D103E0A3
:100CB0009A21D1A0FFF718FBA06918B1A069B0F57F
:100CC000005F00D103E09B21CBA0FFF70DFBE069A3
:100CD000B0F5805F01D0E06900B903E09C21C6A0B7
:100CE000FFF702FB206AB0F5006F01D0206A00B95F
:100CF00003E09D21C0A0FFF7F7FA606AB0F5806FAE
:100D000001D0606A00B903E09E21BBA0FFF7ECFAB6
:100D1000A06A18B1A06AB0F5007F00D103E09F215E
:100D2000B5A0FFF7E1FAE06A802801D0E06A00B9D7
:100D300003E0A021B0A0FFF7D7FA206B40B1206BF1
:100D4000202805D0206B402802D0206B602800D1DD
:100D500003E0A121A8A0FFF7C7FA606B102801D01B
:100D6000606B00B903E0A221A3A0FFF7BDFAA06B5E
:100D7000B0F1004F01D0A06B00B903E0A3219EA009
:100D8000FFF7B2FAE06BB0F5007F05D0E06BB0F58D
:100D9000407F01D0E06B00B903E0A42196A0FFF7EB
:100DA000A3FA206C402805D0206C802802D0206C4B
:100DB000C02800D103E0A5218FA0FFF795FA606C51
:100DC00010B1606C202800D103E0A6218AA0FFF7B3
:100DD0008BFAA06C10B1A06C082800D103E0A72109
:100DE00085A0FFF781FAE06C012801D0E06C00B922
:100DF00003E0A82180A0FFF777FA206DA0F58061BD
:100E0000043907D0206D042804D0206D10B1206D66
:100E1000102800D103E0A92177A0FFF765FA606DE3
:100E2000A0F58061023904D0606D022801D0606DA8
:100E300000B903E0AA2170A0FFF756FA206EB0F5C2
:100E4000803F00D203E0AB216BA0FFF74DFA606E4C
:100E500010B1606E802800D103E0AC2166A0FFF7DE
:100E600043FAA06E40B1A06E102805D0A06E2028D5
:100E700002D0A06E302800D103E0AD215EA0FFF7C4
:100E800033FAE06E082801D0E06E00B903E0AE212D
:100E900059A0FFF729FA206F042801D0206F00B96C
:100EA00003E0AF2154A0FFF71FFA606F022801D0C2
:100EB000606F00B903E0B0214FA0FFF715FAA06FF3
:100EC000B0F5803F01D0A06F00B903E0B1214AA086
:100ED000FFF70AFAE06FB0F5803F00D203E0B221DD
:100EE00045A0FFF701FAD4F8800020B1D4F88000C3
:100EF000B0F1806F00D103E0B4213FA0FFF7F4F917
:100F0000D4F88400B0F1007F02D0D4F8840000B996
:100F100003E0B52138A0FFF7E7F9D4F8880020B145
:100F2000D4F88800B0F1807F00D103E0B62132A070
:100F3000FFF7DAF9D4F88C00B0F5001F02D0D4F82E
:100F40008C0000B903E0B7212BA0FFF7CDF9D4F84E
:100F5000900010B3D4F89000B0F5804F1DD0D4F8B5
:100F60009000B0F5004F18D0D4F89000B0F5404F85
:100F700013D0D4F89000B0F5803F0ED0D4F8900094
:100F8000B0F5A03F09D0D4F89000B0F5C03F04D030
:100F9000D4F89000B0F5E03F00D103E0B82116A0EE
:100FA000FFF7A2F9D4F89400802802D0D4F8940076
:100FB00000B903E0B92110A0FFF796F9D4F8980022
:100FC000402802D0D4F8980000B903E0BA210AA062
:100FD000FFF78AF9D4F89C0058B1D4F89C0008288F
:100FE00007D0D4F89C00102803D0D4F89C0018280F
:100FF00008D10CE00087930373746D33325F65741E
:10100000682E6300BB21AFF21000FFF76DF9D4F832
:10101000A000042802D0D4F8A00000B904E0BC214C
:10102000AFF22C00FFF760F9D4F8A400B0F1007F14
:1010300002D0D4F8A40000B904E0BD21AFF248000A
:10104000FFF752F9D4F8A800B0F5803F02D0D4F8E9
:10105000A80000B904E0BE21AFF26400FFF744F934
:10106000D4F8AC00B0F5003F36D0D4F8AC00B0F501
:10107000802F31D0D4F8AC00B0F5002F2CD0D4F8AC
:10108000AC00B0F5801F27D0D4F8AC00B0F5001F3D
:1010900022D0D4F8AC00B0F5800F1DD0D4F8AC004D
:1010A000B0F1817F18D0D4F8AC00B0F1827F13D0BA
:1010B000D4F8AC00B0F1847F0ED0D4F8AC00B0F11D
:1010C000887F09D0D4F8AC00B0F1907F04D0D4F878
:1010D000AC00B0F1A07F00D104E0BF21AFF2E80086
:1010E000FFF702F9D4F8B000B0F5807F36D0D4F81D
:1010F000B000B0F5007F31D0D4F8B000B0F5806F0B
:101100002CD0D4F8B000B0F5006F27D0D4F8B000E0
:10111000B0F5805F22D0D4F8B000B0F5005F1DD0EC
:10112000D4F8B000B0F1012F18D0FE49D4F8B000C7
:10113000884213D0FC49D4F8B00088420ED0FB4955
:10114000D4F8B000884209D0F949D4F8B0008842F8
:1011500004D0F849D4F8B000884200D104E0C0219E
:10116000AFF26C10FFF7C0F8D4F8B4001F2800D815
:1011700004E0C121AFF28010FFF7B6F8D4F8B80050
:1011800090B1D4F8B800B0F5804F0DD0D4F8B800C5
:10119000B0F5004F08D0D4F8B800B0F5404F03D0F8
:1011A000D4F8B800022800D104E0C221AFF2B81090
:1011B000FFF79AF8E048056925F01C0501A816F02C
:1011C0005AFC029EDD48864205D3DD48864202D2A3
:1011D00045F0080509E0DA48864205D3D948864239
:1011E00002D245F00C0500E000BFD3480561056858
:1011F000D5480540D4E901010843E1680843216965
:10120000084361690843A1690843E1690843216A09
:101210000843616A0843A16A0843E16A0843216BF5
:101220000843616B08430543C3480560D4E90E01D8
:101230000843216C0843616C0843A16C0843E16CCE
:101240000843216D0843616D0843BB494860A06DA8
:101250008860E06DC860084685694FF641700540BA
:10126000D4E9181040EA0140A16E0843E16E08433A
:10127000216F0843616F08430543AF488561D4E996
:101280001E010843AC49C861B0488569B0480540B3
:10129000D4E920010843D4F888100843D4F88C100E
:1012A0000843D4F890100843D4F894100843D4F8B5
:1012B00098100843D4F89C100843D4F8A0100843B1
:1012C0000543A2488561D4E929010843D4F8AC104C
:1012D0000843D4F8B0100843D4F8B41040EA8100B1
:1012E000D4F8B810084340F4000098490860012081
:1012F00006B0BDE8F0810021016041608160C160FD
:10130000016141618161C161016241628162C162C9
:10131000016341638163C163402101642021416411
:1013200000218164C164016541658165C165016613
:101330008021416600218166C1660167416781673E
:10134000C1674FF08061C0F880104910C0F8841068
:101350004910C0F88810C910C0F88C100021C0F8DE
:101360009010C0F89410C0F89810C0F89C10C0F805
:10137000A0104FF00071C0F8A4100021C0F8A81010
:101380004FF40031C0F8AC104912C0F8B010002181
:10139000C0F8B410C0F8B810704710B504460CB1CE
:1013A000012C00D105E040F2B371AFF2B430FEF78A
:1013B0009BFF34B16548806940F002006349886151
:1013C00005E06248806920F002006049886110BD34
:1013D00010B504460CB1012C00D105E040F29C711F
:1013E000AFF2EC30FEF780FF34B15848806940F42A
:1013F00000505649886105E05448806920F4005047
:101400005249886110BD10B504460CB1012C00D1C1
:1014100005E040F21731AFF22040FEF765FF34B12E
:101420004548006840F004004349086005E0424830
:10143000006820F004004049086010BD43488069FE
:1014400040F4801041498861704710B504460CB1E2
:10145000012C00D105E04FF44071AFF26440FEF77B
:1014600043FF34B13448006840F008003249086056
:1014700005E03148006820F008002F49086010BDE1
:1014800010B50120FFF7E1FFFFF7D8FF0120FFF7BC
:10149000BAFF0120FFF79CFF0120FFF77EFF10BD80
:1014A00010B503460A4600212A480068006810F07B
:1014B000004F01D0002010BD002105E0585C254CF4
:1014C0002468A4686054491C9142F7D3C2F30C000D
:1014D000204C246860601F480068006840F040505D
:1014E0001C4C246820601B480068006840F00040E5
:1014F000184C246820601548406910F0040F04D08F
:101500000420124C6061002060601248006800688E
:1015100010F4801F20D00F480068C0680D4C206078
:101520002FE000000002000100040001000800019B
:10153000001000010020000100800240002D310158
:10154000C00E1602008793030F8120FF0090024017
:10155000233FDEF80C000020FD480068006810F40E
:10156000001F04D0FB480069F94C206009E0F948ED
:101570000068C0F38404F648006810302044F44C3E
:101580002060012097E710B5024600210023F248B1
:101590000068006810F0004F01D0002010BDEE4838
:1015A0000068006810F4004F1CD1EB480068006828
:1015B00010F4807F16D0E8480068006810F4007FBF
:1015C00010D0E54800680068C0F30D40031F0021FB
:1015D00005E0E14800688068405C5054491C99422D
:1015E000F7D300E000234FF00040DB4C246820607C
:1015F000D848406910F0800F04D08020D54C60613D
:101600000020A060D4480068406810F4804F05D0E6
:10161000D1480068C068D04C206014E0CE48006813
:10162000406810F4004F04D0CA48C068CA4C20601B
:1016300009E0C8480068C0F38404C7480068103057
:101640002044C54C20601846A8E701460868C0F34E
:101650000D40704700B50022BF480068006810F0D8
:10166000004F16D1BC480068006810F4004F10D13C
:10167000B9480068006810F4807F0AD0B648006856
:10168000006810F4007F04D0B3480068FFF7DDFF66
:101690000246104600BD4FF00040AF49096808609F
:1016A000AD480068406810F4804F05D0AA48006833
:1016B000C068A949086014E0A7480068406810F4B1
:1016C000004F04D0A348C068A349086009E0A148BE
:1016D0000068C0F38401A0480068103008449E49A7
:1016E000086070472DE9F04105460E4600240027AA
:1016F0001F2D00DC05E04FF41F71AFF20470FEF700
:10170000F3FD1F2E00DC05E040F27D21AFF21870E2
:10171000FEF7EAFD9148046904F01C044FF4784098
:1017200000EAC52004434FF4F86000EA8610044341
:1017300024F0020444F001048848046100BF7F1CC7
:101740008648046914F0010F02D085488742F6D319
:101750008348874202D10020BDE8F0817F4840697C
:1017600080B2F9E72DE9F04105460E469046002487
:1017700000271F2D00DC05E040F2AB21AFF288709E
:10178000FEF7B2FD1F2E00DC05E04FF42B71AFF227
:101790009870FEF7A9FD7148046904F01C044FF429
:1017A000784000EAC52004434FF4F86000EA861050
:1017B000044344F0020444F001046848C0F8148073
:1017C000046100BF7F1C6548046914F0010F02D05A
:1017D00063488742F6D36248874202D10020BDE8C1
:1017E000F0810120FBE770B506460C4600251F2E50
:1017F00000DC05E040F2DA21AFF60400FEF774FDEC
:101800000CB1012C00D105E040F2DB21AFF618004D
:10181000FEF76AFD00213046FFF764FF054614B16C
:1018200045F4804502E04BF6FF7005402A46002152
:101830003046FFF797FF08B1012070BD0020FCE79C
:1018400000204649896911F0010F01D0012000E014
:10185000002070474148806940F001003F4988619D
:10186000704710B504460CB1012C00D105E040F2E0
:101870004D31AFF67C00FEF737FD34B13748806953
:1018800040F001003549886105E03448806920F066
:1018900001003249886110BD70B504460025B4F5D9
:1018A000007F07D0402C05D0202C03D0102C01D075
:1018B000082C00D105E04FF45B71AFF6C400FEF7D1
:1018C00013FD2648806B204201D0012500E0002551
:1018D000284670BD70B504460025B4F5007F07D0DA
:1018E000402C05D0202C03D0102C01D0082C00D186
:1018F00005E040F28731AFF60010FEF7F5FC17481F
:10190000806B204201D0012500E00025284670BDF3
:1019100070B504460D4634F4027001D104B105E0FF
:1019200040F2A131AFF63010FEF7DEFC0DB1012D13
:1019300000D105E040F2A231AFF64410FEF7D4FC2E
:1019400085B10648C06BA0430449C8630FE000009E
:101950000C00002000900240100000200080024097
:10196000FFFF0400FC48C06B2043FB49C86370BD07
:1019700070B504460D462CB1082C03D0102C01D0B4
:10198000182C00D105E040F2BF31AFF69410FEF7FD
:10199000ABFC2879697940EA0126EF4820440664C7
:1019A000E8780006A97840EA0140697840EA012019
:1019B000297840EA0106E8482044466470BD70B5C5
:1019C00004460D462CB1082C03D0102C01D0182C45
:1019D00000D105E040F2DB31AFF6E410FEF784FC05
:1019E000DD482044066C300A68712E71DA482044C4
:1019F000466C300EE870300CA870300A68702E709B
:101A000070BD70B504460D46082C03D0102C01D0D3
:101A1000182C00D105E040F2FB31AFF62420FEF790
:101A200063FC0DB1012D00D105E04FF47F71AFF6DD
:101A30003820FEF759FC45B1C7482044006C40F0FF
:101A40000040C5492144086407E0C3482044006CB5
:101A500020F00040C0492144086470BD70B50446C0
:101A60000D46082C03D0102C01D0182C00D105E015
:101A700040F21C41AFF68020FEF736FC0DB1082D78
:101A800000D105E040F21D41AFF69420FEF72CFC9A
:101A9000082D08D0B0482044006C40F08040AE498A
:101AA0002144086407E0AC482044006C20F08040EA
:101AB000A9492144086470BD70B504460D46082C40
:101AC00003D0102C01D0182C00D105E040F2414188
:101AD000AFF6DC20FEF708FCB5F1005F0ED0B5F1E3
:101AE000805F0BD0B5F1006F08D0B5F1806F05D0E5
:101AF000B5F1007F02D0B5F1807F00D105E040F262
:101B00004241AFF60C30FEF7EFFB93482044006CE7
:101B100020F07C509049214408648F482044006C98
:101B200028438D492144086470BD30B50C461346E6
:101B300000218A4D286000BF15E000EB01124FF430
:101B400080151560C1EB411505EB811504EB0515FA
:101B500095605D1E8D4204D900EB01151035D560EE
:101B600000E0D060491C9942E7D37D4D286130BD2B
:101B700070B504460D460020784E346000BF16E074
:101B800004EB0011C0EB401606EB801605EB0616C1
:101B90008E60C0EB401606EB801602EB0616CE6098
:101BA0005E1E864202D14FF400160E60401C984221
:101BB000E6D36B4E346170BD70B505460C46002609
:101BC000B4F1004F3FD0B4F1804F3CD0B4F1005F8E
:101BD00039D0B4F1805F36D0B4F1006F33D0B4F1B6
:101BE000806F30D0B4F1007F2DD0B4F5001F2AD023
:101BF000B4F5801F27D0B4F5003F24D0B4F5803F62
:101C000021D0B4F5004F1ED0B4F5804F1BD0B4F5F1
:101C1000005F18D0B4F5805F15D0B4F5006F12D016
:101C2000B4F5806F0FD0B4F5007F0CD0B4F5807F91
:101C300009D0802C07D0782C05D0042C03D0022C9E
:101C400001D0012C00D105E040F2C141AFF658406F
:101C5000FEF74AFB2868204201D0012600E000265A
:101C6000304670BD01460868C0F3C3007047016884
:101C700041F000410160704770B504460D460DB15A
:101C8000012D00D105E040F2EE41AFF69440FEF7A1
:101C90002BFB25B1206840F08040206003E02068E5
:101CA00020F08040206070BD70B505460C46B4F150
:101CB000804F02D0B4F1005F00D105E04FF4A16184
:101CC000AFF6CC40FEF710FB28682043286070BDBB
:101CD00070B505460C4644B1B4F5800F05D0B4F597
:101CE000000F02D0B4F5400F00D105E040F21C51C6
:101CF000AFF6FC40FEF7F8FA28682043286070BD74
:101D000070B504460D460DB1012D00D105E040F23D
:101D10002C51AFF61C50FEF7E7FA25B1206820F0F1
:101D20000060206003E0206840F00060206070BD2B
:101D300070B504460D460DB1012D00D105E040F20D
:101D40004451AFF64C50FEF7CFFA5DB1206840F435
:101D5000001020600AE00000008002400C0000201B
:101D600000900240206820F40010206070BD70B523
:101D700004460D460DB1012D00D105E040F25C5145
:101D8000AFF68C50FEF7B0FA25B1206840F4801011
:101D9000206003E0206820F48010206070BD70B5E2
:101DA00004460D460DB1012D00D105E040F27451FD
:101DB000AFF6BC50FEF798FA25B1206820F080609D
:101DC000206003E0206840F08060206070BD70B546
:101DD00004460D460DB1012D00D105E040F28C51B5
:101DE000AFF6EC50FEF780FA25B1206840F00070A5
:101DF000206003E0206820F00070206070BD70B5A6
:101E000004460D461646B5F5005F00D205E040F2E7
:101E1000A451AFF61C60FEF767FAB6F5005F00D27A
:101E200005E040F2A551AFF63060FEF75DFA45EAF5
:101E3000064160680843606070BD30B50C461346CB
:101E40000021F74D286000BF18E000EB01124FF0B1
:101E50000045156044F2F0555560C1EB411505EBA6
:101E6000811504EB051595605D1E8D4204D900EBCC
:101E700001151035D56000E0D060491C9942E4D3CB
:101E8000E84DE86030BD70B504460D460021E44ED3
:101E9000346000BF1DE004EB01104FF00046066007
:101EA0004FF4BE664660C1EB411606EB811605EBAA
:101EB00006168660C1EB411606EB811602EB06168C
:101EC000C6605E1E8E4203D1466846F400464660F8
:101ED000491C9942DFD3D34EF46070BD70B50546FE
:101EE0000C460026B4F1004F2AD0B4F1804F27D021
:101EF000B4F5004F24D0B4F5804F21D0B4F5005F85
:101F00001ED0B4F5805F1BD0B4F5006F18D0B4F5C7
:101F1000806F15D0B4F5007F12D0B4F5807F0FD05C
:101F2000802C0DD0402C0BD0202C09D0102C07D0A9
:101F3000082C05D0042C03D0022C01D0012C00D198
:101F400005E04FF4C461AFF65070FEF7CDF9286894
:101F5000204201D0012600E00026304670BD016815
:101F600041F000410160704770B504460D460DB167
:101F7000012D00D105E040F24C61AFF68470FEF710
:101F8000B3F925B1606820F00040606003E060684C
:101F900040F00040606070BD70B504460D460DB164
:101FA000012D00D105E040F26461AFF6B470FEF798
:101FB0009BF925B1606840F40040606003E0606810
:101FC00020F40040606070BD70B504460D460DB150
:101FD000012D00D105E040F27C61AFF6E470FEF720
:101FE00083F925B1606840F48040606003E0606878
:101FF00020F48040606070BD70B505460C460CB1A1
:10200000012C00D104E040F296618748FEF76CF99C
:102010001CB16868C0F30C4070BD6868C0F30C0068
:10202000FAE78048006840F001007E490860704788
:1020300000207C49096811F0010F01D0012000E067
:102040000020704770B504460025B4F1005F2AD027
:10205000B4F1805F27D0B4F1006F24D0B4F5803F95
:1020600021D0B4F5004F1ED0B4F5804F1BD0B4F58D
:10207000005F18D0B4F5806F15D0B4F5007F12D092
:10208000B4F5807F0FD0802C0DD0402C0BD0202CAD
:1020900009D0102C07D0082C05D0042C03D0022C1A
:1020A00001D0012C00D104E040F2E3615E48FEF76C
:1020B0001BF95C484069204201D0012500E0002561
:1020C000284670BD10B504465848044201D104B1F9
:1020D00004E040F207715448FEF706F951484461A4
:1020E00010BD70B504460025B4F1005F2AD0B4F1EC
:1020F000805F27D0B4F1006F24D0B4F5803F21D0A9
:10210000B4F5004F1ED0B4F5804F1BD0B4F5005F7E
:1021100018D0B4F5806F15D0B4F5007F12D0B4F5A7
:10212000807F0FD0802C0DD0402C0BD0202C09D0DC
:10213000102C07D0082C05D0042C03D0022C01D081
:10214000012C00D104E040F229713748FEF7CCF8A9
:1021500034484069204201D0012500E0002528468E
:1021600070BD10B504463148044201D104B104E009
:1021700040F24D712C48FEF7B7F82A48446110BD73
:102180002848406900F0010070472648406900F087
:102190004000704700202349896911F4801F01D055
:1021A000012000E00020704770B504460D461F482E
:1021B000044201D104B104E040F2DC711A48FEF798
:1021C00093F80DB1012D00D104E040F2DD71164805
:1021D000FEF78AF82DB11348C06920431149C86140
:1021E00004E01048C069A0430E49C86170BD70B5D5
:1021F00004460025B4F1805F02D0B4F5803F00D1E1
:1022000004E040F2F7710848FEF76EF80548006AEE
:10221000204201D0012500E00025284670BD0000C5
:102220001000002000900240F80F00080018FEFF88
:10223000FA48006AC0F34A407047F848006A80B222
:102240007047F648806C7047F448C06C7047F3489C
:10225000006D7047F148406D70470020EF494860BD
:1022600070470020ED4988607047ED48C06A40F033
:102270000040EB49C86270470146002000BF04E0FF
:1022800051F82020E64B9A62401C0828F8D370478A
:1022900010B504460CB1012C00D104E040F67D01DC
:1022A000E048FEF721F834B1DD48C06A40F4007020
:1022B000DB49C86205E0DA48C06A20F40070D849FA
:1022C000C86210BD70B504460025402C01D0202CFA
:1022D00000D104E040F69801D248FEF705F8D04856
:1022E000C06A204201D0012500E00025284670BDCB
:1022F00010B504460CB1012C00D104E040F6AE014B
:10230000C848FDF7F1FF34B1C548C06A40F0040089
:10231000C349C86205E0C248C06A20F00400C04951
:10232000C86210BD10B504460CB1012C00D104E008
:1023300040F6C501BB48FDF7D7FF34B1B848C06AC5
:1023400040F00200B649C86205E0B548C06A20F016
:102350000200B349C86210BD10B504460CB1012C8F
:1023600000D104E040F6DC01AE48FDF7BDFF34B11A
:10237000AB48C06A40F00100A949C86205E0A8481E
:10238000C06A20F00100A649C86210BD10B504461D
:102390000CB1012C00D104E040F6F501A148FDF795
:1023A000A3FF3CB1A048006840F008009C49C1F878
:1023B000000106E09C48006820F008009849C1F838
:1023C000000110BD10B504460CB1012C00D104E091
:1023D00040F60C119348FDF787FF3CB19248006826
:1023E00040F004008E49C1F8000106E08E48006804
:1023F00020F004008A49C1F8000110BD10B5044660
:102400000CB1012C00D104E040F623118548FDF702
:102410006BFF3CB18448006820F002008049C1F89D
:10242000000106E08048006840F002007C49C1F8E5
:10243000000110BD7C48006840F001007849C1F8F7
:102440000001704770B504460D4634F4031002D005
:102450007648044201D104B104E040F64E117148BF
:10246000FDF742FF0DB1012D00D104E040F64F1100
:102470006C48FDF739FF14F0805F12D024F08054CF
:102480003DB16B48006820EA04006549C1F80C01C1
:1024900017E06748006840EA04006149C1F80C0190
:1024A0000FE03DB16348006820EA04005C49C1F8D0
:1024B000100106E05F48006840EA04005849C1F88E
:1024C000100170BD70B504460025B4F5001F0ED094
:1024D000B4F5004F0BD0B4F5804F08D05648844275
:1024E00005D0A4F18050403801D0203000D104E064
:1024F00040F682114B48FDF7F7FE14F0805F0BD0D9
:102500004E480068204205D049480068204201D06A
:1025100001250CE000250AE049480068204205D06A
:1025200043480068204201D0012500E000252846EC
:1025300070BD10B50446B4F5807F1DD0B4F5827F20
:102540001AD0B4F5847F17D0B4F5867F14D0B4F5D3
:10255000887F11D0B4F5A67F0ED0B4F5A87F0BD03C
:10256000B4F5B47F08D0B4F5CA7F05D0B4F5CC7FFC
:1025700002D0B4F5E27F00D104E040F6B61129485C
:10258000FDF7B2FE2648205810BD2E48006840F0E6
:1025900020002C49086070472A48006840F010006D
:1025A0002849086070472748006840F0080025491E
:1025B000086070472348006840F004002149086023
:1025C000704710B50446012C00D004B904E040F671
:1025D000F4111448FDF788FE34B11A48006840F041
:1025E00002001849086005E01648006820F0020063
:1025F0001449086010BD10B504460CB1012C00D17F
:1026000004E040F60B210748FDF76EFEE4B10D48EB
:10261000006840F001000B4908601BE00090024098
:1026200000800240F80F0008008102409FFFFDEF8C
:102630000C8102401081024000000210048102401F
:102640000881024000870240FA48006820F001003B
:10265000F849086010BD70B504460025202C05D04F
:10266000102C03D0082C01D0042C00D104E040F63B
:102670002721F148FDF738FEEE480068204201D0DE
:10268000012500E00025284670BD10B50446FF2C4A
:1026900000D804E040F63C21E748FDF725FEE54878
:1026A000001D046010BD70B504460E46154614B1F9
:1026B000B4F1004F00D104E040F64F21DE48FDF7B1
:1026C00013FEB5F1004F00D204E04FF42561DA4863
:1026D000FDF70AFED7481030066044EA0500D549E8
:1026E0001431086070BDD349183108607047D14A71
:1026F0001C321060121D1160704710B50446B4F50D
:10270000E06F15D0A4F5E060043811D0B4F5E16FA6
:102710000ED008380CD0B4F5E26F09D0083807D0D5
:10272000B4F5E36F04D0083802D0B4F5E46F00D1FB
:1027300004E040F68321C048FDF7D6FDBF4820588D
:1027400010BDF0B504460D460020BD4E3460BD4EB0
:10275000356000BF1DE004EB00114FF004760E6001
:10276000C0EB401606EB801602EB06168E605E1E6E
:10277000864204D904EB00161036CE6000E0CC602F
:1027800005EB00178E68BE6005EB0017CE68FE6093
:10279000401C9842DFD3461E05EB06163560AA4E54
:1027A0003461F0BDF0B504460D460020A74E3460FC
:1027B000A74E356000BF20E004EB00114FF000464B
:1027C0000E6044F2F0564E60C0EB401606EB8016E9
:1027D00002EB06168E605E1E864204D904EB0016DC
:1027E0001036CE6000E0CC6005EB00178E68BE604E
:1027F00005EB0017CE68FE60401C9842DCD3461EF5
:1028000005EB06163560904EF460F0BD70B50546D8
:102810000B46002100248A480068006810F0004F31
:1028200001D0002070BD002105E0685C854E36684F
:10283000B6687054491C9942F7D3C3F30C00804E1C
:10284000366870607E480068006840F040507C4EFA
:10285000366830607A480068006840F00040784E82
:10286000366830607848406910F0040F04D00420C6
:10287000754E70610020706000BF641C7048006875
:10288000006810F4003F03D14FF6FF708442F4D388
:102890007048844201D10020C4E76948006800689C
:1028A00020F40030664E3668306065480068806805
:1028B00001C263480068C068106061480068006831
:1028C00010F4801F14D05F480068C0685C4E306010
:1028D0005C480068006828B15A4800680068594E92
:1028E000306028E0574800681030564E306022E0D3
:1028F00053480068006810F4001F08D0524800696F
:102900004F4E3060504800694E4E306013E04E48E4
:102910000068C0F384064A48006810303044484ECE
:10292000306049480068C0F38406464800681030AB
:102930003044444E3060012074E730B50346002235
:10294000002442480068006810F0004F01D00020C9
:1029500030BD3E480068006810F4004F1CD13B4871
:102960000068006810F4807F16D03848006800685E
:1029700010F4007F10D0354800680068C0F30D40A7
:10298000041F002205E0324800688068805C98548B
:10299000521CA242F7D300E000242B48406910F0FB
:1029A000800F04D08020284D68610020A86027484F
:1029B0000068806801C125480068C0680860234835
:1029C0000068006840F00040204D2D6828601F48D6
:1029D0000068406810F4804F14D01D480068C0683B
:1029E0001A4D28601A480068006828B11848006825
:1029F0000068174D28601AE0154800681030144D23
:102A0000286014E011480068406810F4004F04D0BA
:102A10000D48C0680D4D286009E00B480068C0F300
:102A200084050A48006810302844084D2860204674
:102A30008EE7000000870240F80F00080080024087
:102A40000C00002014000020009002401000002024
:102A500018000020FFFF040010B502F08DF9FE48B9
:102A6000446914F0400F05D0FC4814F011F84020E0
:102A7000FFF777FB14F0010F05D0F94800F01BFFBA
:102A80000120FFF76EFB14F4803F03D04FF4803039
:102A9000F149486114F4004F03D04FF40040EE496F
:102AA000486114F0100F02D01020EB49486114F077
:102AB000800F04D0FFF7D5FB8020E749486114F070
:102AC000040F04D0FFF7C9FB0420E349486102F07A
:102AD00062F910BD70B505460024FEF781F8FFF7D6
:102AE000A0FA00BFFFF7A4FA0128FBD0DD48FEF7EB
:102AF00002FC0120DB49086080034861C0100862C5
:102B00000020C8614FF4007088620020C8624FF056
:102B100000408863202048640020C8640865486538
:102B20004FF4806048620020C1F880004FF00070D0
:102B3000C1F884000011C1F88C000020C1F8940095
:102B4000C1F898000420C1F8A000C005C1F8A40095
:102B50004012C1F8A8008001C1F8AC004012C1F8D1
:102B6000B0004000C1F8B8000846FEF744F804463B
:102B70000121BD48FFF718FB0222BC49BC48FEF703
:102B8000D4FF0422BB49BC48FFF757F9B34974315D
:102B90000020FEF7EDFEFEF773FC002070BD02463C
:102BA000002070470146002070472DE9F04104469F
:102BB0000D4616461F466FF0050002F011F9002081
:102BC000BDE8F0812DE9F04104460D4616461F464A
:102BD0006FF0050002F004F90020BDE8F08170B547
:102BE00006460D461446012D0BD134B106229B49F1
:102BF0007431204602F039F902E04FF0FF3070BD29
:102C000000E000BF00BF0020F9E72DE9F047814652
:102C10000D460221924800F0CBFD07461FB14FF050
:102C2000FF30BDE8F08700262C460DE06189606822
:102C300007E00278914B1B689B689A55761C401CF4
:102C4000491E0029F5D12468002CEFD12889C0F352
:102C50000C008A490968486088480068006840F0AC
:102C6000405086490968086084480068006840F060
:102C7000804082490968086080480068006840F424
:102C800040007E49096808607C48006887684FF406
:102C9000006012F09EFBB989884214D17748006821
:102CA000806800F10E08B8F8080012F098FBC0B276
:102CB000012807D171490968896801F122000021C2
:102CC000418000BF00BF6D480068006840F00040D0
:102CD0006A49096808606048406910F0040F04D030
:102CE00004205D4948610020486064480068C0686D
:102CF00062490860002094E72DE9F041074600256D
:102D0000002600245E480068006810F0004F02D0E2
:102D10002046BDE8F0815A480068006810F4004F72
:102D20002BD157480068006810F4807F25D05448A4
:102D30000068006810F4007F1FD0514800680068E8
:102D4000C0F30D40061F0022B1B202200EF05CFA63
:102D5000044694B120460DE04168428907E0484BA3
:102D60001B689B685B5D0B706D1C491C521E002A22
:102D7000F5D100680028EFD100BF4FF00040404976
:102D8000096808603448406910F0800F04D0802042
:102D9000314948610020886039480068406810F473
:102DA000804F05D036480068C0683549086014E097
:102DB00033480068406810F4004F04D02648C068CB
:102DC0002F49086009E024480068C0F384012C48BA
:102DD0000068103008442A490860204699E710B579
:102DE00001214FF4E03014F015FF01217D2014F093
:102DF00036FF10BD08B53D208DF8000000208DF88D
:102E000001008DF8020001208DF80300684617F0DC
:102E100078FF08BD08B501214FF0201016F06CFABC
:102E2000012016F0D3FB4FF4004014F07EFC01208B
:102E300014F0A6FC00BF3D2014F019FB0028FAD0C6
:102E40000B2014F0E3FF0420ADF8000003208DF800
:102E50000200182016E000000090024064280020C4
:102E6000E0280020A803002041000100841C00206D
:102E7000A4040020C4040020640400200C000020EE
:102E8000100000208DF803006946534815F0FAFE43
:102E90000620ADF8000003208DF8020018208DF800
:102EA000030069464D4815F0EDFE43F62010ADF8DD
:102EB000000003208DF8020018208DF803006946F9
:102EC000474815F0DFFE0B20ADF8000003208DF819
:102ED000020004208DF8030069463F4815F0D2FE39
:102EE0004FF48060ADF8000003208DF8020004204C
:102EF0008DF8030069463A4815F0C4FE0820ADF885
:102F0000000003208DF8020004208DF803006946BC
:102F1000324815F0B7FE4FF4F850ADF8000003202A
:102F20008DF8020004208DF8030069462D4815F045
:102F3000A9FE4FF48070ADF8000003208DF8020068
:102F400018208DF803006946234815F09BFE08BD44
:102F500010B5FFF744FFFFF75DFFFFF74BFF0020C1
:102F6000214981F8740080211F4880F87510E12103
:102F700080F876101D4801781B4880F877101B48B0
:102F8000401C0178184880F878101848801C017897
:102F9000154880F879101648134948621548886228
:102FA0001548C86215480863154848631548886382
:102FB0000020C863AFF2BF20C866AFF2B130086727
:102FC0000023022210A1124800F056FB11A106486E
:102FD00013F09EFC10BD00000008014000100140ED
:102FE000000C01400014014064280020EFF7FF1F8F
:102FF000D52A00089F2B0008A52B0008AB2B000842
:10300000C52B0008DF2B000874785F62756600002E
:10301000E02800206530000010B5044621460FA0CE
:1030200002F01DFA204610BD0020704770B504461E
:103030000D462046FFF7F0FF70BD00B50146FFF7D3
:10304000F3FF00BD01464FF0FF30704710B5044656
:103050002046FFF7E1FF10BD00BFFEE7256300003B
:10306000002018490860704716480068704770B51E
:10307000044604F0C7FA054612480460284604F0E6
:10308000C5FA70BD10B50F480068401C0D490860B6
:1030900003F073FE0446A06C401EA064A06C18B937
:1030A000606CA06403F028FF04F00BFA10BD014629
:1030B0004FF47A7201FB02F000F2E730B0FBF2F05D
:1030C000704700002400002070B504460D461646E7
:1030D00014B94FF0FF3070BD2A460721204603F097
:1030E000E2F9E6820020F6E770B5044654B90025FF
:1030F0003123B94AB9A1BDA002F0B1F900BF002D3A
:10310000FDD000BF204603F0F4F9002070BD2DE98A
:10311000F041BE4F7E6819E00C20341AD4F82480A8
:10312000B8F1000F11D0E08A10F0100F0DD1204639
:10313000C04705462DB12A462146B5A002F08FF9B9
:1031400003E0E08A40F01000E0823668381D8642D5
:10315000E2D10020BDE8F0812DE9F041064603F000
:103160000CFE08B103F06DFCA84D6C6810E00C205B
:10317000271A08223146384601F03FFF38B903F0DC
:10318000FCFD08B103F06BFC3846BDE8F081246813
:10319000281D8442EBD103F0F0FD08B103F05FFC81
:1031A0000020F2E72DE9F0410446002554B900273C
:1031B0009823A54A89A18DA002F051F900BF002FE4
:1031C000FDD000BF666A96B1E08A10F0100F10D1F2
:1031D0002046B04705462DB12A4621468CA002F074
:1031E0003EF906E0E08A40F01000E08201E06FF076
:1031F00005052846BDE8F0812DE9F04104460F465B
:1032000064B94FF00008BE23904A74A177A002F081
:1032100026F900BFB8F1000FFCD000BF0025E08AFE
:1032200010F0100F10D12046616A884705463DB165
:103230002A46214676A002F012F92846BDE8F08120
:10324000E08A40F01000E082E08A10F0080F06D01B
:10325000208B10F0080F02D06FF00600EEE7A66A90
:1032600026B139462046B047054601E06FF0050516
:103270000DB1A81D02D147F0080020832846DDE7E4
:103280002DE9F041054655B90027F523704A53A1B1
:1032900056A002F0E4F800BF002FFDD000BFEE6A98
:1032A0001EB12846B047044601E06FF005040CB19A
:1032B000A01D01D1002028832046BDE8F0812DE922
:1032C000F04704460E46174698466CB94FF0000981
:1032D0004FF48D735F4A41A144A002F0C0F800BFD3
:1032E000B9F1000FFCD000BF256B35B143463A461B
:1032F00031462046A847BDE8F0876FF0050001F091
:103300006FFD0020F7E72DE9F04704460E4617460B
:1033100098466CB94FF000094FF49C734E4A2FA1A8
:1033200032A002F09CF800BFB9F1000FFCD000BF42
:10333000656B35B143463A4631462046A847BDE85D
:10334000F0876FF0050001F04BFD0020F7E72DE955
:10335000F04104460E4617466CB94FF0000840F2A3
:1033600053133E4A1DA121A002F079F800BFB8F125
:10337000000FFCD000BFA56B2DB13A463146204668
:10338000A847BDE8F0816FF00500FAE770B5044684
:103390000D465CB900264FF4B573314A0FA113A056
:1033A00002F05DF800BF002EFDD000BFE5610020F7
:1033B00070BD70B504460D465CB9002640F27B1323
:1033C000284A06A109A002F04AF800BF002EFDD04D
:1033D00000BF2562002070BDBFCD01086465762066
:1033E000213D2052545F4E554C4C00002825732936
:1033F00020617373657274206661696C6564206115
:10340000742025733A2564200A000000D0000020B3
:10341000546F20696E697469616C697A65206465AE
:10342000766963653A2573206661696C65642E2050
:10343000546865206572726F7220636F64652069DD
:10344000732025640A000000D4CD0108E3CD0108F3
:10345000F2CD010802CE010811CE010821CE0108EB
:1034600033CE01084DCE01083E49086070472DE972
:10347000F0413D4800F06DF800284BD100BF04F04A
:10348000C1F8074601F096FC70B1384938A001F048
:10349000E6FF00254723354A3EA13FA001F0DFFFAC
:1034A00000BF002DFDD000BF384604F0AFF800BFCC
:1034B00004F0A8F806462C4800F04BF8E0B92A487A
:1034C000016814200C1A04F11400D0E900215160A5
:1034D000D0E9001211604060006000BFA06F10B121
:1034E0002046A16F8847204603F0A5F840B9304632
:1034F00004F08CF8BDE8F081304604F087F8F9E775
:10350000304604F083F8A06A02F094FB204603F0F2
:103510005CF800BF00BFEDE707E01248006810B19B
:10352000104800688047FFF7A2FFF6E71FB520208C
:103530001F21C200204BCDE90032CDE9021000234B
:103540001E4A1FA1204803F0BBFB1F4803F04BFCA1
:103550001FBD01460868884201D101207047002044
:10356000FCE70000280000201401002067CE0108BD
:1035700046756E6374696F6E5B25735D2073686159
:103580006C6C206E6F74207573656420696E2049C1
:1035900053520A00300000002825732920617373FC
:1035A000657274206661696C65642061742025739E
:1035B0003A2564200A0000008029002019350008FF
:1035C0007469646C65000000002900204268116085
:1035D00042684A604160086070472DE9F041054645
:1035E0000C469046204603F024FDB8F1000F03D0AE
:1035F000B8F1010F23D105E004F114012846FFF7CB
:10360000E5FF1CE02E680FE01420371A94F835000F
:1036100097F83510884206DA04F1140107F1140016
:10362000FFF7D4FF02E03668AE42EDD100BFAE42F4
:1036300004D104F114012846FFF7C8FF00BF00BF02
:103640000020BDE8F08170B505460EE003F0DAFF1A
:103650000646142029680C1A4FF0FF3020632046DC
:1036600003F08EFB304603F0D1FF284601F067FBE4
:103670000028EBD0002070BD2DE9F04104460D4636
:1036800016461F4664B94FF00008C623FA4AFBA14C
:10369000FEA001F0E4FE00BFB8F1000FFCD000BFB7
:1036A0002A460121204602F0FEFE204601F04FFB93
:1036B000A68367720020BDE8F08170B5044654B956
:1036C0000025E223F94AEDA1F0A001F0C8FE00BFF9
:1036D000002DFDD000BF04F11400FFF7B4FF204619
:1036E00002F007FF002070BD2DE9F04705460E46A9
:1036F000174600BF03F086FF814601F05BFB80B1F7
:10370000EB49ECA001F0ABFE4FF00008FD23E84AC6
:10371000F1A1DEA001F0A3FE00BFB8F1000FFCD0C4
:1037200000BF484603F072FF00BF2946012002F0A7
:1037300002FF044614B92046BDE8F087204601F098
:1037400006FBA68367722046F6E770B5044600BF05
:1037500003F058FF064601F02DFB78B1DF49D5A0F4
:1037600001F07DFE002540F21B13DC4ADAA1C7A060
:1037700001F075FE00BF002DFDD000BF304603F004
:1037800045FF00BF5CB9002540F21D13D34ABBA121
:10379000BEA001F064FE00BF002DFDD000BF04F10B
:1037A0001400FFF750FF204602F00FFF002070BD0D
:1037B0002DE9F34105465DB9002640F23713C84AAA
:1037C000AEA1B2A001F04BFE00BF002EFDD000BFA5
:1037D00000BFC448006818B12846C2490968884734
:1037E00000BF03F00FFF074600BF00BFA88B0028F3
:1037F00006DDA88B401EA883384603F007FF48E08B
:10380000019830B9384603F001FF6FF00100BDE8C0
:10381000FC8100BF03F0F6FE804601F0CBFA78B1E0
:10382000AF49A4A001F01BFE002640F25513AC4A9C
:10383000A9A196A001F013FE00BF002EFDD000BF8D
:10384000404603F0E3FE00BF03F097FA0446002071
:10385000206300BF00BF6A7A214605F11400FFF71C
:10386000BCFE019800280BDD00BF00BF01AA0021AB
:1038700004F14C0003F0F7FD04F14C0003F062FD8D
:10388000384603F0C3FE03F00BF8206B08B1206B41
:10389000BDE700BF9448006818B1284692490968FE
:1038A000884700BF0020B2E710B50446002120463B
:1038B000FFF77EFF10BD70B5044600BF8B4800685F
:1038C00018B1204689490968884700BF002503F0E0
:1038D00099FE064600BF00BF04F1140001F02FFA64
:1038E00028B904F1140001F03AFA012502E0A08B96
:1038F000401CA083304603F089FE012D01D102F067
:10390000CFFF002070BD2DE9F04104460E4615465C
:103910005CB900274FF4E173754A58A15BA001F030
:103920009EFD00BF002FFDD000BF012E10D12F46FD
:1039300003F068FE804604F11400FFF784FEA783BD
:10394000404603F063FE02F0ABFF0020BDE8F081CB
:103950004FF0FF30FAE72DE9F04104460D461646D8
:103960005CB900274FF4F673624A63A147A001F0E7
:1039700076FD00BF002FFDD000BF2A460221204661
:1039800002F091FD204601F0E2F90120A083002021
:103990002062FF20A0770020E0776672BDE8F0810A
:1039A00070B504465CB9002540F20A23574A52A17B
:1039B00036A001F054FD00BF002DFDD000BF04F182
:1039C0001400FFF740FE204602F093FD002070BD7A
:1039D0002DE9F04105460E4600BF03F013FE804678
:1039E00001F0E8F978B14A4932A001F038FD00272A
:1039F0004FF40973464A38A124A001F030FD00BFFE
:103A0000002FFDD000BF404603F000FE00BF294656
:103A1000022002F090FD044614B92046BDE8F08172
:103A2000204601F094F90120A08300202062FF20AD
:103A3000A0770020E07766722046EFE770B5044675
:103A400000BF03F0DFFD064601F0B4F978B131495B
:103A500018A001F004FD00254FF411732D4A1EA19A
:103A60000AA001F0FCFC00BF002DFDD000BF3046D5
:103A700003F0CCFD00BF4FE07DCE010873656D20E3
:103A8000213D2052545F4E554C4C0000282573298F
:103A900020617373657274206661696C656420616E
:103AA000742025733A2564200A00000089CE01089D
:103AB00097CE010846756E6374696F6E5B25735D02
:103AC000207368616C6C206E6F7420757365642060
:103AD000696E204953520A0030000000A5CE01084B
:103AE000B3CE0108F8000020FC00002000010020F7
:103AF000BFCE0108CECE01086D7574657820213DDA
:103B00002052545F4E554C4C00000000DCCE0108A2
:103B1000ECCE0108FCCE01086CB9002540F246232A
:103B2000FC4AAFF22C01AFF29C0001F098FC00BF00
:103B3000002DFDD000BF04F11400FFF784FD2046E6
:103B400002F043FD002070BD2DE9F341044600BFA3
:103B500003F058FD804601F02DF990B1EE49AFF227
:103B6000AC0001F07CFC002640F26123EA4AAFF28F
:103B70009801AFF2E80001F072FC00BF002EFDD00A
:103B800000BF404603F042FD00BF6CB9002640F282
:103B90006323E14AAFF2A001AFF2101001F05FFC25
:103BA00000BF002EFDD000BF03F02CFD074603F040
:103BB000E4F8054600BFD948006818B12046D74947
:103BC0000968884700BF00BF00BF00202863206A43
:103BD000A84203D1E07F401CE07749E0A08B002899
:103BE0000ADDA08B401EA083256295F83500A077E2
:103BF000E07F401CE0773BE0019848B96FF001009E
:103C00002863384603F002FD6FF00100BDE8FC8137
:103C100000BF00BF95F83500216A91F83510884241
:103C200005DA05F135020221206A03F05FFA627AB3
:103C3000294604F11400FFF7D0FC019800280BDDA1
:103C400000BF00BF01AA002105F14C0003F00BFCEE
:103C500005F14C0003F076FB384603F0D7FC02F088
:103C60001FFE286B08B1286BD0E703F0CBFC07469A
:103C7000384603F0CBFC00BFA948006818B12046C5
:103C8000A7490968884700BF0020BFE72DE9F04138
:103C90000446002703F071F8054603F0B3FC06461E
:103CA00000BF00BF00BF9F48006818B120469D4973
:103CB0000968884700BF206AA84209D04FF0FF304A
:103CC0002863304603F0A2FC4FF0FF30BDE8F081DE
:103CD000E07F401EE077E07F08BBA07F216A91F87B
:103CE0003510884205D004F11E020221206A03F03B
:103CF000FDF904F1140001F022F888B9142061697B
:103D00000D1A00BF00BF256295F83500A077E07F4F
:103D1000401CE07704F1140001F021F8012706E0CF
:103D2000A08B401CA08300202062FF20A07730469B
:103D300003F06CFC012F01D102F0B2FD0020C5E7B9
:103D400003464FF0FF3070472DE9F04104460D4621
:103D5000164664B9002740F24533734A73A1AFF2A7
:103D6000D42001F07CFB00BF002FFDD000BF2A460D
:103D70000321204602F097FB6672204600F0E7FF21
:103D80000020E061BDE8F08170B5044664B900250B
:103D90004FF458736A4A65A1AFF2103001F05FFB2F
:103DA00000BF002DFDD000BF04F11400FFF74BFC55
:103DB000204602F09EFB002070BD2DE9F041054633
:103DC0000E4600BF03F01EFC804600F0F3FF90B1EA
:103DD0005C49AFF2203001F042FB00274FF45E73E4
:103DE000584AAFF20C31AFF25C3001F038FB00BF43
:103DF000002FFDD000BF404603F008FC00BF29465D
:103E0000032002F098FB044614B92046BDE8F08177
:103E10006672204600F09BFF0020E0612046F5E737
:103E200070B5044664B9002540F29533464A3FA177
:103E3000AFF2A83001F013FB00BF002DFDD000BF92
:103E400000BF03F0DFFB064600F0B4FF90B13E492F
:103E5000AFF2A03001F003FB002540F297333A4A5D
:103E6000AFF28C31AFF2DC3001F0F9FA00BF002D77
:103E7000FDD000BF304603F0C9FB00BF04F11400C1
:103E8000FFF7E1FB204602F0A0FB002070BD2DE90A
:103E9000F05F04460F4674B94FF0000A40F2B533A4
:103EA0002A4A22A1AFF21C4001F0D9FA00BFBAF1B0
:103EB000000FFCD000BF1FB94FF0FF30BDE8F09FEE
:103EC0004FF0000800BF1748006818B12046154998
:103ED0000968884700BF03F095FB8346E0693843D3
:103EE000E06104F1140000F02AFF88BB666951E02C
:103EF0001420351A4FF0FF3995F8400010F0010FEB
:103F000027D0E86BE1690840E96B884230D14FF077
:103F100000092DE0FCCE01080CCF0108F8000020BC
:103F2000FC000020000100201ACF01086576656EB4
:103F30007420213D2052545F4E554C4C000000002F
:103F400028CF010838CF010848CF010858CF010811
:103F500024E095F8400010F0020F09D0E86BE16909
:103F6000084205D0E86BE1690840E8634FF00009BA
:103F70003668B9F1000F0DD195F8400010F0040F2C
:103F800003D0E069E96B8843E061284602F0F8FE5F
:103F90004FF0010804F114008642A9D1584603F0FD
:103FA00035FBB8F1010F01D102F07AFC002085E762
:103FB0002DE9FF4F81B005460E461746DDF83880E3
:103FC00000BF03F01FFB009000F0F4FEA0B1FE491B
:103FD000AFF2205001F043FA4FF0000A40F20F43D5
:103FE000F94AAFF20C51AFF25C5001F038FA00BF61
:103FF000BAF1000FFCD000BF009803F007FB00BF30
:104000007DB94FF0000A40F21243EF4AAFF2E401EB
:10401000AFF2885001F023FA00BFBAF1000FFCD0D4
:1040200000BF26B94FF0FF3005B0BDE8F08F4FF06C
:10403000FF3902F0A2FE04460021216300BFE348DD
:10404000006818B12846E1490968884700BF03F0B5
:10405000D9FA834617F0010F06D0E8693040B04224
:104060000AD14FF0000907E017F0020F04D0E86909
:10407000304201D04FF00009B9F1000F0AD1E869D0
:104080003040C8F8000017F0040F2ED0E869B043A4
:10409000E8612AE0049818B96FF00100206324E079
:1040A000E66384F840706A7A214605F11400FFF750
:1040B00094FA0498002809DD04AA002104F14C00B8
:1040C00003F0D1F904F14C0003F03CF9584603F039
:1040D0009DFA02F0E5FB206B08B1206BA4E703F02A
:1040E00091FA8346E06BC8F80000584603F08EFA58
:1040F00000BFB748006818B12846B5490968884725
:1041000000BF206B90E72DE9F04104460D46904634
:104110006CB9002640F27443AE4AAFF2F011AFF230
:10412000946001F09CF900BF002EFDD000BF012D6E
:1041300010D103F067FA074604F11400FFF783FA81
:104140000020E061384603F061FA02F0A9FB00208C
:10415000BDE8F0814FF0FF30FAE72DE9F047044663
:104160000D4616461F46DDF8208074B94FF0000951
:1041700040F29C43984A99A1AFF2F06001F06FF9C8
:1041800000BFB9F1000FFCD000BF2A460421204631
:1041900002F089F984F80980204600F0D8FDE66134
:1041A000278400206084A084E08404F1280000F0CB
:1041B000C3FD0020BDE8F08770B5044664B9002552
:1041C00040F2BE43894A85A1AFF2407001F047F941
:1041D00000BF002DFDD000BF04F11400FFF733FA3B
:1041E00004F12800FFF72FFA204602F082F90020A0
:1041F00070BD2DE9F04705460E46174600BF03F097
:1042000001FA814600F0D6FDA0B17949AFF25C70A9
:1042100001F025F94FF0000840F2D943744AAFF29B
:104220004871AFF2987001F01AF900BFB8F1000FB1
:10423000FCD000BF484603F0E9F900BF294604203E
:1042400002F079F9044614B92046BDE8F087677298
:10425000204600F07CFD2684218C880001F004FBC0
:10426000E061E06920B9204602F0AFF90020ECE7F8
:1042700000206084A084E08404F1280000F05CFD4C
:104280002046E2E770B5044600BF03F0BBF90646DE
:1042900000F090FD90B15749AFF2E87001F0DFF8FF
:1042A000002540F20353534AAFF2D471AFF6240015
:1042B00001F0D5F800BF002DFDD000BF304603F05F
:1042C000A5F900BF64B9002540F20653494A43A14D
:1042D000AFF6480001F0C3F800BF002DFDD000BFCD
:1042E00004F11400FFF7AFF904F12800FFF7ABF970
:1042F000E06901F09FFC204602F067F9002070BDE4
:104300002DE9F74F04460F4674B94FF000084FF4FB
:10431000A663394A31A1AFF68C0001F0A0F800BFC6
:10432000B8F1000FFCD000BF002602F026FD0546C4
:1043300000BF3248006818B12046304909688847F4
:1043400000BF03F05FF98146608C218C884208D160
:10435000029830B9484603F059F96FF00200BDE801
:10436000FE8F78E000202863029828B9484603F0C1
:104370004DF96FF00200F2E700BF03F043F9824607
:1043800000F018FDA0B11C49AFF6D80001F067F8A5
:104390004FF0000840F25153174AAFF6C401AFF690
:1043A000141001F05CF800BFB8F1000FFCD000BFA2
:1043B000504603F02BF900BF627A294604F1280029
:1043C000FFF70BF902981BE066CF0108F800002008
:1043D000FC00002074CF010885CF01086D62202108
:1043E0003D2052545F4E554C4C00000090CF0108C8
:1043F0009DCF0108AACF0108B7CF01080001002016
:1044000000280EDDFEF730FE064600BF00BF02AA00
:10441000002105F14C0003F026F805F14C0002F0F4
:1044200091FF484603F0F2F802F03AFA286B08B11F
:10443000286B94E703F0E6F88146029800280ADD2D
:10444000FEF712FE861B0298801B0290029800283D
:1044500001DA00200290608C218C884282D0A18CED
:10446000E06940F82170A08C401CA084A08C218CB5
:10447000884201DB0020A084608C401C608404F131
:10448000140000F05CFC50B904F1140000F067FC6B
:10449000484603F0BBF802F003FA00205FE7484605
:1044A00003F0B4F800205AE770B504460D46002228
:1044B00029462046FFF724FF70BD2DE9F74F04463B
:1044C0000F467CB94FF000084FF4B763FE4AAFF2D5
:1044D000F401AFF6482000F0C2FF00BFB8F1000FB2
:1044E000FCD000BF002602F048FC054600BFF7489C
:1044F000006818B12046F5490968884700BF03F0F5
:1045000081F88146608C40B9029830B9484603F082
:104510007DF86FF00100BDE8FE8F5CE000202863AD
:10452000029830B9484603F071F86FF00100286333
:10453000F1E700BF03F066F8824600F03BFCA0B153
:10454000E149AFF6902000F08AFF4FF0000840F2FA
:10455000DB53DD4AAFF68021AFF6D02000F07FFFBD
:1045600000BFB8F1000FFCD000BF504603F04EF87A
:1045700000BF627A294604F11400FFF72EF8029872
:1045800000280EDDFEF770FD064600BF00BF02AA40
:10459000002105F14C0002F066FF05F14C0002F02D
:1045A000D1FE484603F032F802F07AF9286B08B1E0
:1045B000286BB0E703F026F88146029800280ADD50
:1045C000FEF752FD861B0298801B0290029800287D
:1045D00001DA00200290608C00289FD0E18CE06915
:1045E00050F821003860E08C401CE084E08C218C85
:1045F000884201DB0020E084608C401E608404F16E
:10460000280000F09CFB98B904F1280000F0A7FBFB
:10461000484602F0FBFF00BFAD48006818B12046D5
:10462000AB490968884700BF02F03AF9002072E7F9
:10463000484602F0EBFF00BFA548006818B12046CD
:10464000A3490968884700BF002064E72DE9F041CD
:1046500004460D4690466CB9002640F234639D4AEC
:10466000AFF28821AFF6DC3000F0F9FE00BF002E7B
:10467000FDD000BF012D16D102F0C4FF074604F1A2
:104680001400FEF7E0FF04F12800FEF7DCFF002035
:104690006084A084E084384602F0B8FF02F000F99C
:1046A0000020BDE8F0814FF0FF30FAE72DE9F05F20
:1046B00004460F4690469946DDF828A074B94FF09D
:1046C000000B40F26A63844A84A1AFF6404000F0D8
:1046D000C6FE00BFBBF1000FFCD000BF3A4605216B
:1046E000204601F0E0FE0B986072204600F02FFBA0
:1046F000C4F81C8009F1070020F007002084208CFA
:10470000001DBAFBF0F060840020A062E06220632C
:10471000002508E0208C001DE16905FB0016206BD8
:10472000306026636D1C608CA842F3DC0020A084FE
:10473000BDE8F09F70B5044664B9002540F29A6365
:104740006A4A66A1AFF6BC4000F089FE00BF002DAA
:10475000FDD000BF04F11400FEF775FF204601F004
:10476000C8FE002070BD70B5044600BF02F04AFFCD
:10477000064600F01FFB90B15D49AFF6C84000F05F
:104780006EFE002540F2EE63594AAFF6B441AFF633
:10479000045000F064FE00BF002DFDD000BF304685
:1047A00002F034FF00BF64B9002540F2F163504AC3
:1047B0004AA1AFF6285000F052FE00BF002DFDD0F8
:1047C00000BF04F11400FEF73EFFE06901F032FA89
:1047D000204601F0FAFE002070BD2DE9F84F074693
:1047E000884691469A4600BF02F00CFF009000F008
:1047F000E1FAA0B13F49AFF6445000F030FE4FF06F
:10480000000B40F2B6633B4AAFF63451AFF684502A
:1048100000F025FE00BFBBF1000FFCD000BF0098E8
:1048200002F0F4FE00BF3946052001F084FE044684
:1048300014B92046BDE8F88F84F809A0204600F09E
:1048400086FA08F1070020F007002084A4F82290DF
:10485000218C091D628C01FB02F001F005F8E0617A
:10486000E06920B92046FFF77EFF0020E2E7002044
:10487000A062E0622063002508E0208C001DE16951
:1048800005FB0016206B306026636D1C608CA8420F
:10489000F3DC0020A0842046CCE72DE9F047044655
:1048A0000F46164674B94FF0000840F21673124ACC
:1048B0000AA1AFF6286000F0D2FD00BFB8F1000FEA
:1048C000FCD000BF4FBB19E0C7CF0108F8000020A3
:1048D000FC000020D2CF0108E0CF01086D7120213B
:1048E0003D2052545F4E554C4C000000EBCF010868
:1048F00005D00108F8CF010812D001084FF00008D8
:1049000040F21773FA4AFBA1AFF6806000F0A7FDF2
:1049100000BFB8F1000FFCD000BF76B94FF000081F
:104920004FF4E363F24AF8A1AFF6A06000F097FD00
:1049300000BFB8F1000FFCD000BF208CB04203D202
:104940004FF0FF30BDE8F08700BFF248006818B1B3
:104950002046F0490968884700BF02F053FE8146AF
:10496000256B2DB9484602F051FE6FF00200E9E7D1
:1049700028682063484602F049FE0020286032463D
:104980003946281D00F071FA02F03CFE8146E06ACB
:1049900008B1E06A0560E562A06A00B9A562A08C72
:1049A000401CA08404F1140000F0C9F950B904F1CE
:1049B000140000F0D4F9484602F028FE01F070FF20
:1049C0000020BFE7484602F021FE0020BAE72DE9AB
:1049D000F04704460F4616467CB94FF0000840F2F7
:1049E0006B73CD4AAFF20C11AFF6607000F037FD7B
:1049F00000BFB8F1000FFCD000BF77B94FF000083E
:104A000040F26C73C44ABBA1AFF6807000F027FD82
:104A100000BFB8F1000FFCD000BF76B94FF000081E
:104A200040F26D73BC4AB8A1AFF6A07000F017FD5C
:104A300000BFB8F1000FFCD000BF208CB04203D201
:104A40004FF0FF30BDE8F08700BFB248006818B1F2
:104A50002046B0490968884700BF02F0D3FD81466F
:104A6000256B2DB9484602F0D1FD6FF00200E9E751
:104A700028682063484602F0C9FD32463946281DA1
:104A800000F0F3F902F0BEFD8146A06A2860A5623D
:104A9000E06A00B9E562A08C401CA08404F1140017
:104AA00000F04DF950B904F1140000F058F94846EF
:104AB00002F0ACFD01F0F4FE0020C3E7484602F02E
:104AC000A5FD0020BEE72DE9FF4F81B004460F464B
:104AD000904674B94FF0000A40F2BD738F4AAFF2AE
:104AE00004218F4800F0BBFC00BFBAF1000FFCD0DE
:104AF00000BF6FB94FF0000A40F2BE73874A7DA134
:104B0000874800F0ACFC00BFBAF1000FFCD000BF3A
:104B1000B8F1000F0DD14FF0000A40F2BF737F4A89
:104B200079A17F4800F09BFC00BFBAF1000FFCD0D8
:104B300000BF4FF0000902F020F9054600BF794898
:104B4000006818B1204677490968884700BF02F01D
:104B500059FD8346A08C48B9049838B9584602F0EC
:104B600055FD6FF0010005B0BDE8F08F5CE000BFBF
:104B700002F048FD009000F01DF990B167496848C7
:104B8000283000F06CFC4FF0000A40F2D473634A06
:104B90005FA1634800F063FC00BFBAF1000FFCD0D6
:104BA00000BF009802F032FD00BF00202863049887
:104BB00030B9584602F02AFD6FF001002863D2E7B1
:104BC000627A294604F11400FEF707FD04980028D4
:104BD0000EDDFEF749FA814600BF00BF04AA00219E
:104BE00005F14C0002F03FFC05F14C0002F0AAFB7D
:104BF000584602F00BFD01F053FE286B08B1286BFC
:104C0000B1E702F0FFFC8346049800280CDDFEF7B4
:104C10002BFAA0EB09090498A0EB09000490049872
:104C2000002801DA00200490A08C00289FD0A66AFA
:104C30003068A062E06AB04201D10020E062A08C3E
:104C4000401EA084584602F0E1FC208C404501D271
:104C5000208C00E040460246311D384600F005F940
:104C600002F0D0FC8346206B30602663584602F089
:104C7000CDFC00BF2C48006818B120462A490968BD
:104C8000884700BF00206EE72DE9F04704460E4636
:104C9000914664B9002740F63A03244AAFF2C43182
:104CA0001F4800F0DCFB00BF002FFDD000BF012E2D
:104CB0003ED102F0A7FC804604F11400FEF7C3FCCD
:104CC0000AE0A56A2868A062E06AA84201D1002033
:104CD000E062206B28602563A06A0028F1D1A084DF
:104CE000404602F093FC01F0DBFD0020BDE8F087B8
:104CF00012D0010862756666657220213D2052540B
:104D00005F4E554C4C00000073697A6520213D20B0
:104D100030000000000100201DD001082AD0010849
:104D20008C3A0008F8000020FC00002035D0010873
:104D30004FF0FF30BDE8F0874060006070470146EB
:104D40000868884201D1012070470020FCE710B5B7
:104D5000044604F11400FFF7EFFF002010BD70B50A
:104D60000446142021680D1A00BF00BF284602F037
:104D700007F8002070BD000010B500BF00BF02F0B2
:104D800041FC04460D480078401C0C490870204640
:104D900002F03CFC10BD10B500BF00BF02F032FCB9
:104DA000044606480078401E04490870204602F078
:104DB0002DFC10BD01480078704700002C00002039
:104DC00010B5FFF7F7FF10B1F948006810BD01F00A
:104DD000D4FF044614B9F6480068F7E7206BF5E7FE
:104DE00070B50446FFF7E6FF10B1F148046070BDEE
:104DF00001F0C3FF054615B9ED480460F7E72C63E1
:104E000000BFF4E710B5FFF7D5FF08B1E84810BDC3
:104E100001F0B3FF044614B104F13000F7E7E448B1
:104E2000F5E7F0B50C460546E6B2042A15D310F0B6
:104E3000030F12D1014646EA062343EA034304E086
:104E400008C108C108C108C1103A102AF8D201E00F
:104E500008C1121F042AFBD20D4601E005F8016BC0
:104E60001700A2F10102F9D1F0BD2DE9F0410F4682
:104E7000164604463D463346102B26D305F0030C58
:104E800004F003085CEA080C1FD121462A4610E012
:104E900052F804CB41F804CB52F804CB41F804CBD0
:104EA00052F804CB41F804CB52F804CB41F804CBC0
:104EB000103B102BECD204E052F804CB41F804CBA9
:104EC0001B1F042BF8D20C46154603E015F801CB46
:104ED00004F801CB5FEA030CA3F10103F6D1BDE8AE
:104EE000F08170B50C46014623468B4210D29D18C6
:104EF0008D420DD91144134405E05D1E2B462E78DA
:104F00004D1E29462E701500A2F10102F5D108E0D0
:104F100003E013F8015B01F8015B1500A2F1010247
:104F2000F7D170BDF0B5034600201C460D4608E0E1
:104F300026782F78F61B300000D004E0641C6D1C2E
:104F4000521E002AF4D800BFF0BD01460A4600E018
:104F5000521C10780028FBD1501A7047F0B5064655
:104F60000F463846FFF7F1FF05460DB93046F0BD54
:104F70003046FFF7EAFF044609E0641E2A46394638
:104F80003046FFF7CFFF08B93046F0E7761CAC4259
:104F9000F3DA0020EBE730B503460C4600BF13F808
:104FA000011B14F8012B412902DB5A2900DC2031B6
:104FB000412A02DB5A2A00DC2032914201D1002929
:104FC000EDD1881A30BD70B50346A2B118460C4623
:104FD00000BF14F8016B00F8016B3EB902E0002538
:104FE00000F8015B551E2A00F9D102E0551E2A0087
:104FF000EFD100BF00BF184670BD30B5034600209A
:105000000BE011F8015B1C78641B64B2200002D134
:1050100013F8015B05B902E0521E002AF1D100BF6E
:1050200030BD024601E0521C491C107818B11078BE
:105030000B789842F7D010780B78C01A704770B58B
:1050400004462046FFF781FF451C284600F00CFC73
:1050500006460EB9002070BD2A4621463046FFF7AD
:1050600004FF3046F7E770472DE9FF4F1E460E9CC0
:105070000D9D14F0400F02D0DFF838C101E0DFF8D9
:1050800038C1E24614F0100F01D024F0010414F0EE
:10509000010F02D04FF0300C01E04FF0200CE14640
:1050A000002714F0020F0DD0002A02DA2D275242F9
:1050B00008E014F0040F01D02B2703E014F0080FD0
:1050C00000D02027002332B94FF0300B9C465B1CE8
:1050D0000DF80CB019E016E0B046B8F10A0F08D18F
:1050E0004FF00A0BB2FBFBFE0BFB1E2CB2FBFBF2DC
:1050F00002E002F00F0C120900BF1AF80CB09C4637
:105100005B1C0DF80CB0002AE6D1ED1A14F0110F5B
:105110000CD106E0884203D84FF0200C80F800C084
:10512000401CB5F1000CA5F10105F3DC27B1884264
:1051300001D807706D1E401C14F0100F0AD104E056
:10514000884201D880F80090401CB5F1000CA5F110
:105150000105F5DC06E0884203D81DF803C080F89D
:1051600000C0401CB3F1000CA3F10103F3DC06E026
:10517000884203D84FF0200C80F800C0401CB5F1E5
:10518000000CA5F10105F3DC04B0BDE8F08F2DE9BA
:10519000FF4F87B0814615464C4608984844471E45
:1051A0004F4504D24FF0FF37A7EB0900089047E1C5
:1051B0003400002054D0010843D001082878252865
:1051C00005D0BC4201D828782070641C37E1002645
:1051D0001FE06D1C28782D2802D146F0100618E03B
:1051E00028782B2802D146F0040612E028782028DF
:1051F00002D146F008060CE02878232802D146F0B8
:10520000200606E02878302802D146F0010600E0AA
:1052100000E0DEE700BF4FF0FF38287830380A287A
:1052200011D200BF002008E029466D1C097800EB70
:10523000800201EB4201A1F13000297830390A29BE
:10524000F2D380460EE028782A280BD16D1C0A98EC
:1052500050F8048B0A90B8F1000F03DAC8F1000887
:1052600046F01006002002902878682802D028789E
:105270006C2802D1287802906D1C0A2003902878AF
:105280006F2874D00CDC632813D004DC25286FD081
:1052900058286ED18DE064286CD06928F9D18FE050
:1052A000702869D0732828D0752878D07828F0D154
:1052B00082E016F0100F0AD104E0BC4201D8202091
:1052C0002070641CA8F10100B0F10008F5DC0A9818
:1052D00002C80A90C8B20590BC4201D80598207057
:1052E000641C04E0BC4201D820202070641CA8F19A
:1052F0000100B0F10008F5DCA1E00A980068049014
:105300000A98001D0A90049808B9B0A00490049867
:10531000FFF71BFE824616F0100F0AD104E0BC42D4
:1053200001D820202070641C4046A8F10108504597
:10533000F5DC002006900BE0BC4202D8049800780F
:105340002070641C0498401C04900698401C069031
:1053500006985045F0DB04E0BC4201D820202070C4
:10536000641C4046A8F101085045F5DC67E01DE0EB
:1053700016E029E023E0FFE718F1010003D14FF028
:10538000080846F00106CDE900860A9804C81023F3
:1053900039460A902046FFF767FE04464FE012E0C8
:1053A000BC4201D825202070641C48E008200390EE
:1053B00019E046F0400600BF1020039013E000BF44
:1053C00046F0020600BF0EE0BC4201D82520207046
:1053D000641C287828B1BC4201D828782070641C4D
:1053E00000E06D1E2BE000BF02986C2807D10A98E0
:1053F00050F804BB0A9016F0020F16D015E0029880
:1054000068280AD10A9802C81FFA81FB0A9016F090
:10541000020F0AD00FFA8BFB07E00A9850F804BB82
:105420000A9016F0020F00D000BFCDE900865A4660
:1054300039462046039BFFF717FE044600BF6D1C4C
:10544000287800287FF4BAAEBC4201D8207001E071
:1054500000203870A4EB09000BB0BDE8F08F0FB44A
:1054600038B505A8009080215A48009B049AFFF7A0
:105470008EFE04465848006818B95648FFF7F3FDF9
:1054800006E02346534A002153480068FDF73BFFDE
:105490000020009038BC5DF814FB3EB54FA0FFF72C
:1054A000DEFF51A0FFF7DBFF58A05BA11022032312
:1054B000CDE900210290002201215AA0FFF7CFFF81
:1054C00063A0FFF7CCFF51A253A16CA0FFF7C7FF69
:1054D0006F4800686F49B0FBF1F421466EA0FFF7FA
:1054E000BEFF3EBD0FB4F8B504460D4609A80090B6
:1054F00029462046009B089AFFF749FE06460020F1
:1055000000903046F8BC5DF814FB37B505460C46F4
:1055100022464FF0FF312846029BFFF738FE3EBD82
:105520000FB438B5044606A800902046009A0599A5
:10553000FFF7EBFF054600200090284638BC5DF8D9
:1055400014FB25480068704770B505462248066878
:105550002846FDF701FE044664B11F48006818B1F3
:105560001D480068FDF78CFE1B480460032100689D
:10557000FDF742FE304670BD2DE9F04107460C466E
:10558000E01C20F00304F81C20F0030000EB0408EA
:10559000404600F069F9054665B1601E284201D118
:1055A0002E1904E0601E2844611E20EA010646F818
:1055B000045C35462846BDE8F08170B5044654F8D1
:1055C000045C284600F036FB70BD0000284E554CA8
:1055D0004C290000802A0020300000200A205C2096
:1055E0007C202F0A000000002D205254202D202066
:1055F000202020546872656164204F706572617468
:10560000696E672053797374656D0A0031373A34D7
:10561000393A3530000000004170722031312032BB
:1056200030313400202F207C205C202020202025B9
:10563000642E25642E256420757067726164652070
:105640002564206275696C642025732025730A0027
:105650002032303036202D203230313120436F70EF
:105660007972696768742062792072742D74687227
:10567000656164207465616D0A0000004275696CA3
:10568000642054696D652025732025730A0000008D
:10569000B802002040420F0053797374656D2043B7
:1056A0006C6F636B204672657175656E636520254E
:1056B000644D487A0A000000F44908607047F449D4
:1056C000086070472DE9F0410446F24800688442C2
:1056D0000AD200278023F04AF0A1F8A0FFF7BFFE0E
:1056E00000BF002FFDD000BFFC48006884420AD3F1
:1056F00000278123E84AFAA1F0A0FFF7B0FE00BF1F
:10570000002FFDD000BF608850B100278223E24AFD
:10571000FEA1EAA0FFF7A3FE00BF002FFDD000BF4F
:10572000DC49606809684518AC4215D0688898B9AA
:10573000EA48006885420FD0F8480068A84201D1C5
:10574000F648046068686060D2480068201AD14A50
:105750006968126811448860CE49A06809684618D3
:10576000A64211D0708878B9EC480068A04201D1F7
:10577000EA48066060687060C6480068301AC54A2A
:105780006168126811448860BDE8F0812DE9F04736
:1057900005460E46E81D20F0070726F0070800BF63
:1057A00001F030FF8246FFF705FB80B1DC49DDA048
:1057B000FFF755FE4FF00009AE23D94AE2A1BFA082
:1057C000FFF74DFE00BFB9F1000FFCD000BF5046FF
:1057D00001F01CFF00BFB8F1200F09D9A8F120008B
:1057E000B84205D3A8EB07002038D849086006E086
:1057F00032462946D6A0FFF732FEBDE8F087A5481D
:10580000076000BF00BF04684FF4F5502080CF4808
:105810000068103060600020A06060809D49606872
:1058200009680844AD4908604FF4F55009680880DC
:105830000120AA4909684880C44800681030A74977
:1058400009684860C14800681030A4490968886048
:1058500000230122CDA1CF48FDF70EFF8D4800683F
:10586000AE49086000BFC8E72DE9F047054600BF14
:1058700001F0C8FE8246FFF79DFA80B1C649A9A093
:10588000FFF7EDFD4FF00009E923C34AAEA18BA05D
:10589000FFF7E5FD00BFB9F1000FFCD000BF504697
:1058A00001F0B4FE00BF15B90020BDE8F087E81D87
:1058B00020F00700A84201D000BF01E000BF00BFF8
:1058C000E81D20F00705A1480068854203D900BF04
:1058D00000BF0020E9E7102D00D210254FF0FF3166
:1058E000AC48FDF765FF8D4800686A490968461AAB
:1058F00095E1684800688419608800287ED106F127
:1059000010006168081AA84278D306F11000616897
:10591000091A05F1200081422DD306F1100000EB99
:1059200005085C48006800EB080700207880606884
:105930007860BE60C4F80480012060808348796884
:1059400000681030814205D05249786809680844DF
:10595000C0F808809148016805F1100008448F499B
:1059600008608F4800680968884219D28B4800682F
:105970008B49086014E0012060804649606809682E
:10598000611A401A854909680844844908608448B6
:1059900000680968884203D280480068804908602E
:1059A0004FF4F55020805D48006884422CD107E018
:1059B0005A480068406837490968084457490860F0
:1059C00056480068408828B154480068434909682F
:1059D0008842EDD15148006840490968884213D097
:1059E0004E480068408878B14FF000094FF4A27328
:1059F000694A6CA131A0FFF732FD00E00BE100BF66
:105A0000B9F1000FFCD000BF6248FDF754FF04F16C
:105A1000100028443149096888420DD94FF0000927
:105A20004FF4A4735C4A694924A0FFF718FD00BF36
:105A3000B9F1000FFCD000BF14F0070F0ED04FF0EB
:105A4000000940F24913544A604948311BA0FFF74E
:105A500006FD00BFB9F1000FFCD000BF14F0070F26
:105A60000DD04FF000094FF4A5734B4A58A113A075
:105A7000FFF7F5FC00BFB9F1000FFCD000BF00BF7D
:105A800000BF00BF01480068BAE0000038000020F5
:105A90003C000020400000208FD001082872745F75
:105AA00075696E74385F74202A296D656D203E3DDE
:105AB00020686561705F707472000000282573298A
:105AC00020617373657274206661696C656420611E
:105AD000742025733A2564200A0000004400002049
